{
  "_format": "hh-sol-artifact-1",
  "contractName": "Floppy",
  "sourceName": "contracts/Token.sol",
  "abi": [
    {
      "inputs": [],
      "stateMutability": "nonpayable",
      "type": "constructor"
    },
    {
      "inputs": [
        {
          "internalType": "address",
          "name": "spender",
          "type": "address"
        },
        {
          "internalType": "uint256",
          "name": "allowance",
          "type": "uint256"
        },
        {
          "internalType": "uint256",
          "name": "needed",
          "type": "uint256"
        }
      ],
      "name": "ERC20InsufficientAllowance",
      "type": "error"
    },
    {
      "inputs": [
        {
          "internalType": "address",
          "name": "sender",
          "type": "address"
        },
        {
          "internalType": "uint256",
          "name": "balance",
          "type": "uint256"
        },
        {
          "internalType": "uint256",
          "name": "needed",
          "type": "uint256"
        }
      ],
      "name": "ERC20InsufficientBalance",
      "type": "error"
    },
    {
      "inputs": [
        {
          "internalType": "address",
          "name": "approver",
          "type": "address"
        }
      ],
      "name": "ERC20InvalidApprover",
      "type": "error"
    },
    {
      "inputs": [
        {
          "internalType": "address",
          "name": "receiver",
          "type": "address"
        }
      ],
      "name": "ERC20InvalidReceiver",
      "type": "error"
    },
    {
      "inputs": [
        {
          "internalType": "address",
          "name": "sender",
          "type": "address"
        }
      ],
      "name": "ERC20InvalidSender",
      "type": "error"
    },
    {
      "inputs": [
        {
          "internalType": "address",
          "name": "spender",
          "type": "address"
        }
      ],
      "name": "ERC20InvalidSpender",
      "type": "error"
    },
    {
      "inputs": [
        {
          "internalType": "address",
          "name": "owner",
          "type": "address"
        }
      ],
      "name": "OwnableInvalidOwner",
      "type": "error"
    },
    {
      "inputs": [
        {
          "internalType": "address",
          "name": "account",
          "type": "address"
        }
      ],
      "name": "OwnableUnauthorizedAccount",
      "type": "error"
    },
    {
      "anonymous": false,
      "inputs": [
        {
          "indexed": true,
          "internalType": "address",
          "name": "owner",
          "type": "address"
        },
        {
          "indexed": true,
          "internalType": "address",
          "name": "spender",
          "type": "address"
        },
        {
          "indexed": false,
          "internalType": "uint256",
          "name": "value",
          "type": "uint256"
        }
      ],
      "name": "Approval",
      "type": "event"
    },
    {
      "anonymous": false,
      "inputs": [
        {
          "indexed": true,
          "internalType": "address",
          "name": "previousOwner",
          "type": "address"
        },
        {
          "indexed": true,
          "internalType": "address",
          "name": "newOwner",
          "type": "address"
        }
      ],
      "name": "OwnershipTransferred",
      "type": "event"
    },
    {
      "anonymous": false,
      "inputs": [
        {
          "indexed": true,
          "internalType": "address",
          "name": "from",
          "type": "address"
        },
        {
          "indexed": true,
          "internalType": "address",
          "name": "to",
          "type": "address"
        },
        {
          "indexed": false,
          "internalType": "uint256",
          "name": "value",
          "type": "uint256"
        }
      ],
      "name": "Transfer",
      "type": "event"
    },
    {
      "inputs": [
        {
          "internalType": "address",
          "name": "owner",
          "type": "address"
        },
        {
          "internalType": "address",
          "name": "spender",
          "type": "address"
        }
      ],
      "name": "allowance",
      "outputs": [
        {
          "internalType": "uint256",
          "name": "",
          "type": "uint256"
        }
      ],
      "stateMutability": "view",
      "type": "function"
    },
    {
      "inputs": [
        {
          "internalType": "address",
          "name": "spender",
          "type": "address"
        },
        {
          "internalType": "uint256",
          "name": "value",
          "type": "uint256"
        }
      ],
      "name": "approve",
      "outputs": [
        {
          "internalType": "bool",
          "name": "",
          "type": "bool"
        }
      ],
      "stateMutability": "nonpayable",
      "type": "function"
    },
    {
      "inputs": [
        {
          "internalType": "address",
          "name": "account",
          "type": "address"
        }
      ],
      "name": "balanceOf",
      "outputs": [
        {
          "internalType": "uint256",
          "name": "",
          "type": "uint256"
        }
      ],
      "stateMutability": "view",
      "type": "function"
    },
    {
      "inputs": [
        {
          "internalType": "uint256",
          "name": "value",
          "type": "uint256"
        }
      ],
      "name": "burn",
      "outputs": [],
      "stateMutability": "nonpayable",
      "type": "function"
    },
    {
      "inputs": [
        {
          "internalType": "address",
          "name": "account",
          "type": "address"
        },
        {
          "internalType": "uint256",
          "name": "value",
          "type": "uint256"
        }
      ],
      "name": "burnFrom",
      "outputs": [],
      "stateMutability": "nonpayable",
      "type": "function"
    },
    {
      "inputs": [],
      "name": "decimals",
      "outputs": [
        {
          "internalType": "uint8",
          "name": "",
          "type": "uint8"
        }
      ],
      "stateMutability": "view",
      "type": "function"
    },
    {
      "inputs": [
        {
          "internalType": "address",
          "name": "to",
          "type": "address"
        },
        {
          "internalType": "uint256",
          "name": "amount",
          "type": "uint256"
        }
      ],
      "name": "mint",
      "outputs": [],
      "stateMutability": "nonpayable",
      "type": "function"
    },
    {
      "inputs": [],
      "name": "name",
      "outputs": [
        {
          "internalType": "string",
          "name": "",
          "type": "string"
        }
      ],
      "stateMutability": "view",
      "type": "function"
    },
    {
      "inputs": [],
      "name": "owner",
      "outputs": [
        {
          "internalType": "address",
          "name": "",
          "type": "address"
        }
      ],
      "stateMutability": "view",
      "type": "function"
    },
    {
      "inputs": [],
      "name": "renounceOwnership",
      "outputs": [],
      "stateMutability": "nonpayable",
      "type": "function"
    },
    {
      "inputs": [],
      "name": "symbol",
      "outputs": [
        {
          "internalType": "string",
          "name": "",
          "type": "string"
        }
      ],
      "stateMutability": "view",
      "type": "function"
    },
    {
      "inputs": [],
      "name": "totalSupply",
      "outputs": [
        {
          "internalType": "uint256",
          "name": "",
          "type": "uint256"
        }
      ],
      "stateMutability": "view",
      "type": "function"
    },
    {
      "inputs": [
        {
          "internalType": "address",
          "name": "to",
          "type": "address"
        },
        {
          "internalType": "uint256",
          "name": "value",
          "type": "uint256"
        }
      ],
      "name": "transfer",
      "outputs": [
        {
          "internalType": "bool",
          "name": "",
          "type": "bool"
        }
      ],
      "stateMutability": "nonpayable",
      "type": "function"
    },
    {
      "inputs": [
        {
          "internalType": "address",
          "name": "from",
          "type": "address"
        },
        {
          "internalType": "address",
          "name": "to",
          "type": "address"
        },
        {
          "internalType": "uint256",
          "name": "value",
          "type": "uint256"
        }
      ],
      "name": "transferFrom",
      "outputs": [
        {
          "internalType": "bool",
          "name": "",
          "type": "bool"
        }
      ],
      "stateMutability": "nonpayable",
      "type": "function"
    },
    {
      "inputs": [
        {
          "internalType": "address",
          "name": "newOwner",
          "type": "address"
        }
      ],
      "name": "transferOwnership",
      "outputs": [],
      "stateMutability": "nonpayable",
      "type": "function"
    }
  ],
  "bytecode": "0x60806040526012600a620000149190620007f9565b640ba43b74006200002691906200084a565b6006553480156200003657600080fd5b50336040518060400160405280600681526020017f466c6f70707900000000000000000000000000000000000000000000000000008152506040518060400160405280600381526020017f464c5000000000000000000000000000000000000000000000000000000000008152508160039081620000b5919062000b05565b508060049081620000c7919062000b05565b505050600073ffffffffffffffffffffffffffffffffffffffff168173ffffffffffffffffffffffffffffffffffffffff16036200013f5760006040517f1e4fbdf700000000000000000000000000000000000000000000000000000000815260040162000136919062000c31565b60405180910390fd5b62000150816200017c60201b60201c565b5062000165336006546200024260201b60201c565b6200017633620002cf60201b60201c565b62000cf4565b6000600560009054906101000a900473ffffffffffffffffffffffffffffffffffffffff16905081600560006101000a81548173ffffffffffffffffffffffffffffffffffffffff021916908373ffffffffffffffffffffffffffffffffffffffff1602179055508173ffffffffffffffffffffffffffffffffffffffff168173ffffffffffffffffffffffffffffffffffffffff167f8be0079c531659141344cd1fd0a4f28419497f9722a3daafe3b4186f6b6457e060405160405180910390a35050565b600073ffffffffffffffffffffffffffffffffffffffff168273ffffffffffffffffffffffffffffffffffffffff1603620002b75760006040517fec442f05000000000000000000000000000000000000000000000000000000008152600401620002ae919062000c31565b60405180910390fd5b620002cb600083836200036860201b60201c565b5050565b620002df6200059860201b60201c565b600073ffffffffffffffffffffffffffffffffffffffff168173ffffffffffffffffffffffffffffffffffffffff1603620003545760006040517f1e4fbdf70000000000000000000000000000000000000000000000000000000081526004016200034b919062000c31565b60405180910390fd5b62000365816200017c60201b60201c565b50565b600073ffffffffffffffffffffffffffffffffffffffff168373ffffffffffffffffffffffffffffffffffffffff1603620003be578060026000828254620003b1919062000c4e565b9250508190555062000494565b60008060008573ffffffffffffffffffffffffffffffffffffffff1673ffffffffffffffffffffffffffffffffffffffff168152602001908152602001600020549050818110156200044d578381836040517fe450d38c000000000000000000000000000000000000000000000000000000008152600401620004449392919062000c9a565b60405180910390fd5b8181036000808673ffffffffffffffffffffffffffffffffffffffff1673ffffffffffffffffffffffffffffffffffffffff16815260200190815260200160002081905550505b600073ffffffffffffffffffffffffffffffffffffffff168273ffffffffffffffffffffffffffffffffffffffff1603620004df57806002600082825403925050819055506200052c565b806000808473ffffffffffffffffffffffffffffffffffffffff1673ffffffffffffffffffffffffffffffffffffffff168152602001908152602001600020600082825401925050819055505b8173ffffffffffffffffffffffffffffffffffffffff168373ffffffffffffffffffffffffffffffffffffffff167fddf252ad1be2c89b69c2b068fc378daa952ba7f163c4a11628f55a4df523b3ef836040516200058b919062000cd7565b60405180910390a3505050565b620005a86200063a60201b60201c565b73ffffffffffffffffffffffffffffffffffffffff16620005ce6200064260201b60201c565b73ffffffffffffffffffffffffffffffffffffffff16146200063857620005fa6200063a60201b60201c565b6040517f118cdaa70000000000000000000000000000000000000000000000000000000081526004016200062f919062000c31565b60405180910390fd5b565b600033905090565b6000600560009054906101000a900473ffffffffffffffffffffffffffffffffffffffff16905090565b7f4e487b7100000000000000000000000000000000000000000000000000000000600052601160045260246000fd5b60008160011c9050919050565b6000808291508390505b6001851115620006fa57808604811115620006d257620006d16200066c565b5b6001851615620006e25780820291505b8081029050620006f2856200069b565b9450620006b2565b94509492505050565b600082620007155760019050620007e8565b81620007255760009050620007e8565b81600181146200073e576002811462000749576200077f565b6001915050620007e8565b60ff8411156200075e576200075d6200066c565b5b8360020a9150848211156200077857620007776200066c565b5b50620007e8565b5060208310610133831016604e8410600b8410161715620007b95782820a905083811115620007b357620007b26200066c565b5b620007e8565b620007c88484846001620006a8565b92509050818404811115620007e257620007e16200066c565b5b81810290505b9392505050565b6000819050919050565b60006200080682620007ef565b91506200081383620007ef565b9250620008427fffffffffffffffffffffffffffffffffffffffffffffffffffffffffffffffff848462000703565b905092915050565b60006200085782620007ef565b91506200086483620007ef565b92508282026200087481620007ef565b915082820484148315176200088e576200088d6200066c565b5b5092915050565b600081519050919050565b7f4e487b7100000000000000000000000000000000000000000000000000000000600052604160045260246000fd5b7f4e487b7100000000000000000000000000000000000000000000000000000000600052602260045260246000fd5b600060028204905060018216806200091757607f821691505b6020821081036200092d576200092c620008cf565b5b50919050565b60008190508160005260206000209050919050565b60006020601f8301049050919050565b600082821b905092915050565b600060088302620009977fffffffffffffffffffffffffffffffffffffffffffffffffffffffffffffffff8262000958565b620009a3868362000958565b95508019841693508086168417925050509392505050565b6000819050919050565b6000620009e6620009e0620009da84620007ef565b620009bb565b620007ef565b9050919050565b6000819050919050565b62000a0283620009c5565b62000a1a62000a1182620009ed565b84845462000965565b825550505050565b600090565b62000a3162000a22565b62000a3e818484620009f7565b505050565b5b8181101562000a665762000a5a60008262000a27565b60018101905062000a44565b5050565b601f82111562000ab55762000a7f8162000933565b62000a8a8462000948565b8101602085101562000a9a578190505b62000ab262000aa98562000948565b83018262000a43565b50505b505050565b600082821c905092915050565b600062000ada6000198460080262000aba565b1980831691505092915050565b600062000af5838362000ac7565b9150826002028217905092915050565b62000b108262000895565b67ffffffffffffffff81111562000b2c5762000b2b620008a0565b5b62000b388254620008fe565b62000b4582828562000a6a565b600060209050601f83116001811462000b7d576000841562000b68578287015190505b62000b74858262000ae7565b86555062000be4565b601f19841662000b8d8662000933565b60005b8281101562000bb75784890151825560018201915060208501945060208101905062000b90565b8683101562000bd7578489015162000bd3601f89168262000ac7565b8355505b6001600288020188555050505b505050505050565b600073ffffffffffffffffffffffffffffffffffffffff82169050919050565b600062000c198262000bec565b9050919050565b62000c2b8162000c0c565b82525050565b600060208201905062000c48600083018462000c20565b92915050565b600062000c5b82620007ef565b915062000c6883620007ef565b925082820190508082111562000c835762000c826200066c565b5b92915050565b62000c9481620007ef565b82525050565b600060608201905062000cb1600083018662000c20565b62000cc0602083018562000c89565b62000ccf604083018462000c89565b949350505050565b600060208201905062000cee600083018462000c89565b92915050565b61139e8062000d046000396000f3fe608060405234801561001057600080fd5b50600436106100f55760003560e01c806370a082311161009757806395d89b411161006657806395d89b4114610260578063a9059cbb1461027e578063dd62ed3e146102ae578063f2fde38b146102de576100f5565b806370a08231146101ec578063715018a61461021c57806379cc6790146102265780638da5cb5b14610242576100f5565b806323b872dd116100d357806323b872dd14610166578063313ce5671461019657806340c10f19146101b457806342966c68146101d0576100f5565b806306fdde03146100fa578063095ea7b31461011857806318160ddd14610148575b600080fd5b6101026102fa565b60405161010f9190610f59565b60405180910390f35b610132600480360381019061012d9190611014565b61038c565b60405161013f919061106f565b60405180910390f35b6101506103af565b60405161015d9190611099565b60405180910390f35b610180600480360381019061017b91906110b4565b6103b9565b60405161018d919061106f565b60405180910390f35b61019e6103e8565b6040516101ab9190611123565b60405180910390f35b6101ce60048036038101906101c99190611014565b6103f1565b005b6101ea60048036038101906101e5919061113e565b61045e565b005b6102066004803603810190610201919061116b565b610472565b6040516102139190611099565b60405180910390f35b6102246104ba565b005b610240600480360381019061023b9190611014565b6104ce565b005b61024a6104ee565b60405161025791906111a7565b60405180910390f35b610268610518565b6040516102759190610f59565b60405180910390f35b61029860048036038101906102939190611014565b6105aa565b6040516102a5919061106f565b60405180910390f35b6102c860048036038101906102c391906111c2565b6105cd565b6040516102d59190611099565b60405180910390f35b6102f860048036038101906102f3919061116b565b610654565b005b60606003805461030990611231565b80601f016020809104026020016040519081016040528092919081815260200182805461033590611231565b80156103825780601f1061035757610100808354040283529160200191610382565b820191906000526020600020905b81548152906001019060200180831161036557829003601f168201915b5050505050905090565b6000806103976106da565b90506103a48185856106e2565b600191505092915050565b6000600254905090565b6000806103c46106da565b90506103d18582856106f4565b6103dc858585610788565b60019150509392505050565b60006012905090565b6103f961087c565b600654816104056103af565b61040f9190611291565b1115610450576040517f08c379a000000000000000000000000000000000000000000000000000000000815260040161044790611311565b60405180910390fd5b61045a8282610903565b5050565b61046f6104696106da565b82610985565b50565b60008060008373ffffffffffffffffffffffffffffffffffffffff1673ffffffffffffffffffffffffffffffffffffffff168152602001908152602001600020549050919050565b6104c261087c565b6104cc6000610a07565b565b6104e0826104da6106da565b836106f4565b6104ea8282610985565b5050565b6000600560009054906101000a900473ffffffffffffffffffffffffffffffffffffffff16905090565b60606004805461052790611231565b80601f016020809104026020016040519081016040528092919081815260200182805461055390611231565b80156105a05780601f10610575576101008083540402835291602001916105a0565b820191906000526020600020905b81548152906001019060200180831161058357829003601f168201915b5050505050905090565b6000806105b56106da565b90506105c2818585610788565b600191505092915050565b6000600160008473ffffffffffffffffffffffffffffffffffffffff1673ffffffffffffffffffffffffffffffffffffffff16815260200190815260200160002060008373ffffffffffffffffffffffffffffffffffffffff1673ffffffffffffffffffffffffffffffffffffffff16815260200190815260200160002054905092915050565b61065c61087c565b600073ffffffffffffffffffffffffffffffffffffffff168173ffffffffffffffffffffffffffffffffffffffff16036106ce5760006040517f1e4fbdf70000000000000000000000000000000000000000000000000000000081526004016106c591906111a7565b60405180910390fd5b6106d781610a07565b50565b600033905090565b6106ef8383836001610acd565b505050565b600061070084846105cd565b90507fffffffffffffffffffffffffffffffffffffffffffffffffffffffffffffffff81146107825781811015610772578281836040517ffb8f41b200000000000000000000000000000000000000000000000000000000815260040161076993929190611331565b60405180910390fd5b61078184848484036000610acd565b5b50505050565b600073ffffffffffffffffffffffffffffffffffffffff168373ffffffffffffffffffffffffffffffffffffffff16036107fa5760006040517f96c6fd1e0000000000000000000000000000000000000000000000000000000081526004016107f191906111a7565b60405180910390fd5b600073ffffffffffffffffffffffffffffffffffffffff168273ffffffffffffffffffffffffffffffffffffffff160361086c5760006040517fec442f0500000000000000000000000000000000000000000000000000000000815260040161086391906111a7565b60405180910390fd5b610877838383610ca4565b505050565b6108846106da565b73ffffffffffffffffffffffffffffffffffffffff166108a26104ee565b73ffffffffffffffffffffffffffffffffffffffff1614610901576108c56106da565b6040517f118cdaa70000000000000000000000000000000000000000000000000000000081526004016108f891906111a7565b60405180910390fd5b565b600073ffffffffffffffffffffffffffffffffffffffff168273ffffffffffffffffffffffffffffffffffffffff16036109755760006040517fec442f0500000000000000000000000000000000000000000000000000000000815260040161096c91906111a7565b60405180910390fd5b61098160008383610ca4565b5050565b600073ffffffffffffffffffffffffffffffffffffffff168273ffffffffffffffffffffffffffffffffffffffff16036109f75760006040517f96c6fd1e0000000000000000000000000000000000000000000000000000000081526004016109ee91906111a7565b60405180910390fd5b610a0382600083610ca4565b5050565b6000600560009054906101000a900473ffffffffffffffffffffffffffffffffffffffff16905081600560006101000a81548173ffffffffffffffffffffffffffffffffffffffff021916908373ffffffffffffffffffffffffffffffffffffffff1602179055508173ffffffffffffffffffffffffffffffffffffffff168173ffffffffffffffffffffffffffffffffffffffff167f8be0079c531659141344cd1fd0a4f28419497f9722a3daafe3b4186f6b6457e060405160405180910390a35050565b600073ffffffffffffffffffffffffffffffffffffffff168473ffffffffffffffffffffffffffffffffffffffff1603610b3f5760006040517fe602df05000000000000000000000000000000000000000000000000000000008152600401610b3691906111a7565b60405180910390fd5b600073ffffffffffffffffffffffffffffffffffffffff168373ffffffffffffffffffffffffffffffffffffffff1603610bb15760006040517f94280d62000000000000000000000000000000000000000000000000000000008152600401610ba891906111a7565b60405180910390fd5b81600160008673ffffffffffffffffffffffffffffffffffffffff1673ffffffffffffffffffffffffffffffffffffffff16815260200190815260200160002060008573ffffffffffffffffffffffffffffffffffffffff1673ffffffffffffffffffffffffffffffffffffffff168152602001908152602001600020819055508015610c9e578273ffffffffffffffffffffffffffffffffffffffff168473ffffffffffffffffffffffffffffffffffffffff167f8c5be1e5ebec7d5bd14f71427d1e84f3dd0314c0f7b2291e5b200ac8c7c3b92584604051610c959190611099565b60405180910390a35b50505050565b600073ffffffffffffffffffffffffffffffffffffffff168373ffffffffffffffffffffffffffffffffffffffff1603610cf6578060026000828254610cea9190611291565b92505081905550610dc9565b60008060008573ffffffffffffffffffffffffffffffffffffffff1673ffffffffffffffffffffffffffffffffffffffff16815260200190815260200160002054905081811015610d82578381836040517fe450d38c000000000000000000000000000000000000000000000000000000008152600401610d7993929190611331565b60405180910390fd5b8181036000808673ffffffffffffffffffffffffffffffffffffffff1673ffffffffffffffffffffffffffffffffffffffff16815260200190815260200160002081905550505b600073ffffffffffffffffffffffffffffffffffffffff168273ffffffffffffffffffffffffffffffffffffffff1603610e125780600260008282540392505081905550610e5f565b806000808473ffffffffffffffffffffffffffffffffffffffff1673ffffffffffffffffffffffffffffffffffffffff168152602001908152602001600020600082825401925050819055505b8173ffffffffffffffffffffffffffffffffffffffff168373ffffffffffffffffffffffffffffffffffffffff167fddf252ad1be2c89b69c2b068fc378daa952ba7f163c4a11628f55a4df523b3ef83604051610ebc9190611099565b60405180910390a3505050565b600081519050919050565b600082825260208201905092915050565b60005b83811015610f03578082015181840152602081019050610ee8565b60008484015250505050565b6000601f19601f8301169050919050565b6000610f2b82610ec9565b610f358185610ed4565b9350610f45818560208601610ee5565b610f4e81610f0f565b840191505092915050565b60006020820190508181036000830152610f738184610f20565b905092915050565b600080fd5b600073ffffffffffffffffffffffffffffffffffffffff82169050919050565b6000610fab82610f80565b9050919050565b610fbb81610fa0565b8114610fc657600080fd5b50565b600081359050610fd881610fb2565b92915050565b6000819050919050565b610ff181610fde565b8114610ffc57600080fd5b50565b60008135905061100e81610fe8565b92915050565b6000806040838503121561102b5761102a610f7b565b5b600061103985828601610fc9565b925050602061104a85828601610fff565b9150509250929050565b60008115159050919050565b61106981611054565b82525050565b60006020820190506110846000830184611060565b92915050565b61109381610fde565b82525050565b60006020820190506110ae600083018461108a565b92915050565b6000806000606084860312156110cd576110cc610f7b565b5b60006110db86828701610fc9565b93505060206110ec86828701610fc9565b92505060406110fd86828701610fff565b9150509250925092565b600060ff82169050919050565b61111d81611107565b82525050565b60006020820190506111386000830184611114565b92915050565b60006020828403121561115457611153610f7b565b5b600061116284828501610fff565b91505092915050565b60006020828403121561118157611180610f7b565b5b600061118f84828501610fc9565b91505092915050565b6111a181610fa0565b82525050565b60006020820190506111bc6000830184611198565b92915050565b600080604083850312156111d9576111d8610f7b565b5b60006111e785828601610fc9565b92505060206111f885828601610fc9565b9150509250929050565b7f4e487b7100000000000000000000000000000000000000000000000000000000600052602260045260246000fd5b6000600282049050600182168061124957607f821691505b60208210810361125c5761125b611202565b5b50919050565b7f4e487b7100000000000000000000000000000000000000000000000000000000600052601160045260246000fd5b600061129c82610fde565b91506112a783610fde565b92508282019050808211156112bf576112be611262565b5b92915050565b7f466c6f7070793a20636170206578636565646564000000000000000000000000600082015250565b60006112fb601483610ed4565b9150611306826112c5565b602082019050919050565b6000602082019050818103600083015261132a816112ee565b9050919050565b60006060820190506113466000830186611198565b611353602083018561108a565b611360604083018461108a565b94935050505056fea2646970667358221220501e1f2bb73e8d87d82c1de31b33480e528c22646b21a5711e218ec12b77851464736f6c63430008150033",
  "linkReferences": {},
  "deployedLinkReferences": {}
}